{
  "transactions": [
    {
      "hash": "0x3732db516256b3f69ee11dbdfa6e663b79faa13860fbc204bc3ec957e70cca20",
      "transactionType": "CALL",
      "contractName": "LinkToken",
      "contractAddress": "0x779877a7b0d9e8603169ddbd7836e478b4624789",
      "function": "transferAndCall(address,uint256,bytes)",
      "arguments": [
        "0x9DdfaCa8183c41ad55329BdeeD9F6A8d53168B1B",
        "3000000000000000000",
        "0xc54e0cb2c6651fc8279f2f9a089ea5c350863deb653bc5915f0aa9bae6855596"
      ],
      "transaction": {
        "from": "0xcc65351a2ea7ebbe5772735a82556f2d451607d5",
        "to": "0x779877a7b0d9e8603169ddbd7836e478b4624789",
        "gas": "0x14cbb",
        "value": "0x0",
        "input": "0x4000aea00000000000000000000000009ddfaca8183c41ad55329bdeed9f6a8d53168b1b00000000000000000000000000000000000000000000000029a2241af62c000000000000000000000000000000000000000000000000000000000000000000600000000000000000000000000000000000000000000000000000000000000020c54e0cb2c6651fc8279f2f9a089ea5c350863deb653bc5915f0aa9bae6855596",
        "nonce": "0x7",
        "chainId": "0xaa36a7"
      },
      "additionalContracts": [],
      "isFixedGasLimit": false
    }
  ],
  "receipts": [
    {
      "status": "0x1",
      "cumulativeGasUsed": "0xf22ad3",
      "logs": [
        {
          "address": "0x779877a7b0d9e8603169ddbd7836e478b4624789",
          "topics": [
            "0xddf252ad1be2c89b69c2b068fc378daa952ba7f163c4a11628f55a4df523b3ef",
            "0x000000000000000000000000cc65351a2ea7ebbe5772735a82556f2d451607d5",
            "0x0000000000000000000000009ddfaca8183c41ad55329bdeed9f6a8d53168b1b"
          ],
          "data": "0x00000000000000000000000000000000000000000000000029a2241af62c0000",
          "blockHash": "0x491bf8aee6f64ce24be22564f964eef4d3a8f0f391ca1e21b1364e4aa983624d",
          "blockNumber": "0x7d5ff5",
          "blockTimestamp": "0x68102fb8",
          "transactionHash": "0x3732db516256b3f69ee11dbdfa6e663b79faa13860fbc204bc3ec957e70cca20",
          "transactionIndex": "0x88",
          "logIndex": "0x143",
          "removed": false
        },
        {
          "address": "0x779877a7b0d9e8603169ddbd7836e478b4624789",
          "topics": [
            "0xe19260aff97b920c7df27010903aeb9c8d2be5d310a2c67824cf3f15396e4c16",
            "0x000000000000000000000000cc65351a2ea7ebbe5772735a82556f2d451607d5",
            "0x0000000000000000000000009ddfaca8183c41ad55329bdeed9f6a8d53168b1b"
          ],
          "data": "0x00000000000000000000000000000000000000000000000029a2241af62c000000000000000000000000000000000000000000000000000000000000000000400000000000000000000000000000000000000000000000000000000000000020c54e0cb2c6651fc8279f2f9a089ea5c350863deb653bc5915f0aa9bae6855596",
          "blockHash": "0x491bf8aee6f64ce24be22564f964eef4d3a8f0f391ca1e21b1364e4aa983624d",
          "blockNumber": "0x7d5ff5",
          "blockTimestamp": "0x68102fb8",
          "transactionHash": "0x3732db516256b3f69ee11dbdfa6e663b79faa13860fbc204bc3ec957e70cca20",
          "transactionIndex": "0x88",
          "logIndex": "0x144",
          "removed": false
        },
        {
          "address": "0x9ddfaca8183c41ad55329bdeed9f6a8d53168b1b",
          "topics": [
            "0x1ced9348ff549fceab2ac57cd3a9de38edaaab274b725ee82c23e8fc8c4eec7a",
            "0xc54e0cb2c6651fc8279f2f9a089ea5c350863deb653bc5915f0aa9bae6855596"
          ],
          "data": "0x0000000000000000000000000000000000000000000000003782dace9d9000000000000000000000000000000000000000000000000000006124fee993bc0000",
          "blockHash": "0x491bf8aee6f64ce24be22564f964eef4d3a8f0f391ca1e21b1364e4aa983624d",
          "blockNumber": "0x7d5ff5",
          "blockTimestamp": "0x68102fb8",
          "transactionHash": "0x3732db516256b3f69ee11dbdfa6e663b79faa13860fbc204bc3ec957e70cca20",
          "transactionIndex": "0x88",
          "logIndex": "0x145",
          "removed": false
        }
      ],
      "logsBloom": "0x00000004200000000000000000000000000000000020000000000000020000000040000000000000000000002000000000000000000000000000000000000000000000000000000000000008000000000000000000000000000020000020000008000000000000000000000000000000000000000000000080000010000040000000000000000000000000010000800000000020000000000000000000000000000000000000000000000000010000000000000000000010000004000000000000000002000000000000000000000000000000000000000108000000000000000010000000000000800000000000000000000000000000000000000000000000",
      "type": "0x2",
      "transactionHash": "0x3732db516256b3f69ee11dbdfa6e663b79faa13860fbc204bc3ec957e70cca20",
      "transactionIndex": "0x88",
      "blockHash": "0x491bf8aee6f64ce24be22564f964eef4d3a8f0f391ca1e21b1364e4aa983624d",
      "blockNumber": "0x7d5ff5",
      "gasUsed": "0xf0e5",
      "effectiveGasPrice": "0x114b67",
      "from": "0xcc65351a2ea7ebbe5772735a82556f2d451607d5",
      "to": "0x779877a7b0d9e8603169ddbd7836e478b4624789",
      "contractAddress": null
    }
  ],
  "libraries": [],
  "pending": [],
  "returns": {},
  "timestamp": 1745891258,
  "chain": 11155111,
  "commit": "c8c8196"
}